:100000000C947C000C9490000C9490000C94900044
:100010000C9490000C9490000C9490000C94900020
:100020000C9490000C9490000C9490000C94900010
:100030000C9490000C9490000C9490000C94900000
:100040000C9490000C9490000C9490000C949000F0
:100050000C9490000C94D6000C9490000C9490009A
:100060000C9490000C9490000C9490000C949000D0
:100070000C9490000C9490000C9490000C949000C0
:100080000C9490000C9490000C9490000C949000B0
:100090000C9490000C9490000C9490000C949000A0
:1000A0000C9490000C9490000C9490000C94900090
:1000B0000C9490000C9490000C9490000C94900080
:1000C0000C9490000C9490000C9490000C94900070
:1000D0000C9490000C9490000C9490000C94900060
:1000E0000C9490000C9495000C9492000C94930046
:1000F0000C9496000C94940011241FBECFEFD1E213
:10010000DEBFCDBF00E00CBF22E0A0E0B2E001C046
:100110001D92AC34B207E1F70E94DF010C94050296
:100120000C94000008950895089508950895279A5D
:100130001092000208952F981092000208952F9AAD
:1001400081E080930002089580910002811105C032
:100150002F9A81E0809300020895813019F42F983E
:1001600010920002089582E084BD93E095BD99EF5E
:1001700097BD80936E000895209103022A3090F479
:1001800037E0239FF0011124EC5FFD4F80839183C2
:100190007383628375836483672B29F016822F5FD4
:1001A00020930302089581E08683F9CF2F932FB720
:1001B0002F932BB72F933F934F936F937F938F93EF
:1001C0009F93AF93BF93EF93FF9380910102909120
:1001D0000202019690930202809301023091030281
:1001E000E4E0F2E020E041E0321310C0FF91EF9133
:1001F000BF91AF919F918F917F916F914F913F915F
:100200002F912BBF2F912FBF2F9118958281938112
:10021000009791F06091010270910202A481B58172
:100220006A177B0748F046836091010270910202D1
:10023000860F971F958384832F5F3796D5CF0F93B3
:100240001F93CF93DF9310E007E08091030218170C
:1002500028F0DF91CF911F910F910895019FE00148
:100260001124CC5FDD4F8E81882341F0E881F98134
:1002700019958A819B81892B09F01E821F5FE5CF2A
:10028000E0E9F0E080818A608083E1E9F0E080814C
:100290008A6180832FEF30E030939700209396009F
:1002A00010929D0010929C00E0E8F0E0808182684E
:1002B0008083E1E8F0E080818A6180833093870069
:1002C000209386001092890010928800089584B1CE
:1002D000806C84B9E1E0F1E08081806680836D9A72
:1002E000259A0C944001282F30E030939D002093F4
:1002F0009C0080934B020895282F30E030938900B2
:100300002093880080934A02089580914B020895BB
:1003100080914A020895E2E0F1E090819F7B908312
:100320002E9A282F30E030939D0020939C008093DC
:100330004B020895E2E0F1E090819F7B90832E983C
:10034000282F30E030939D0020939C0080934B0237
:100350000895E2E0F1E080818064808310929D0046
:1003600010929C0010924B020895E2E0F1E090811F
:100370009F7D90832F9A282F30E03093890020931F
:10038000880080934A020895E2E0F1E090819F7D29
:1003900090832F98282F30E0309389002093880095
:1003A00080934A020895E2E0F1E0808180628083D8
:1003B000109289001092880010924A0208950E94BB
:1003C000B3000E949700789470E060E082E990E0CA
:1003D0000E94BC006AE070E084E990E00E94BC00EA
:1003E00062E370E085E990E00E94BC0064E670E0A2
:1003F00086E990E00E94BC0068EE73E083E990E03B
:0E0400000E94BC000E941F01FDCFF894FFCFA8
:00000001FF
